{
  "_format": "hh-sol-artifact-1",
  "contractName": "MiniSwapPool",
  "sourceName": "contracts/MiniSwapPool.sol",
  "abi": [
    {
      "inputs": [
        {
          "internalType": "address",
          "name": "_token0",
          "type": "address"
        },
        {
          "internalType": "address",
          "name": "_token1",
          "type": "address"
        }
      ],
      "stateMutability": "nonpayable",
      "type": "constructor"
    },
    {
      "anonymous": false,
      "inputs": [
        {
          "indexed": true,
          "internalType": "address",
          "name": "owner",
          "type": "address"
        },
        {
          "indexed": true,
          "internalType": "address",
          "name": "spender",
          "type": "address"
        },
        {
          "indexed": false,
          "internalType": "uint256",
          "name": "value",
          "type": "uint256"
        }
      ],
      "name": "Approval",
      "type": "event"
    },
    {
      "anonymous": false,
      "inputs": [
        {
          "indexed": true,
          "internalType": "address",
          "name": "from",
          "type": "address"
        },
        {
          "indexed": true,
          "internalType": "address",
          "name": "to",
          "type": "address"
        },
        {
          "indexed": false,
          "internalType": "uint256",
          "name": "value",
          "type": "uint256"
        }
      ],
      "name": "Transfer",
      "type": "event"
    },
    {
      "inputs": [],
      "name": "INITIAL_SUPPLY",
      "outputs": [
        {
          "internalType": "uint256",
          "name": "",
          "type": "uint256"
        }
      ],
      "stateMutability": "view",
      "type": "function"
    },
    {
      "inputs": [
        {
          "internalType": "uint256",
          "name": "amount0",
          "type": "uint256"
        },
        {
          "internalType": "uint256",
          "name": "amount1",
          "type": "uint256"
        }
      ],
      "name": "add",
      "outputs": [],
      "stateMutability": "nonpayable",
      "type": "function"
    },
    {
      "inputs": [
        {
          "internalType": "address",
          "name": "owner",
          "type": "address"
        },
        {
          "internalType": "address",
          "name": "spender",
          "type": "address"
        }
      ],
      "name": "allowance",
      "outputs": [
        {
          "internalType": "uint256",
          "name": "",
          "type": "uint256"
        }
      ],
      "stateMutability": "view",
      "type": "function"
    },
    {
      "inputs": [
        {
          "internalType": "address",
          "name": "spender",
          "type": "address"
        },
        {
          "internalType": "uint256",
          "name": "amount",
          "type": "uint256"
        }
      ],
      "name": "approve",
      "outputs": [
        {
          "internalType": "bool",
          "name": "",
          "type": "bool"
        }
      ],
      "stateMutability": "nonpayable",
      "type": "function"
    },
    {
      "inputs": [
        {
          "internalType": "address",
          "name": "account",
          "type": "address"
        }
      ],
      "name": "balanceOf",
      "outputs": [
        {
          "internalType": "uint256",
          "name": "",
          "type": "uint256"
        }
      ],
      "stateMutability": "view",
      "type": "function"
    },
    {
      "inputs": [],
      "name": "decimals",
      "outputs": [
        {
          "internalType": "uint8",
          "name": "",
          "type": "uint8"
        }
      ],
      "stateMutability": "view",
      "type": "function"
    },
    {
      "inputs": [
        {
          "internalType": "address",
          "name": "spender",
          "type": "address"
        },
        {
          "internalType": "uint256",
          "name": "subtractedValue",
          "type": "uint256"
        }
      ],
      "name": "decreaseAllowance",
      "outputs": [
        {
          "internalType": "bool",
          "name": "",
          "type": "bool"
        }
      ],
      "stateMutability": "nonpayable",
      "type": "function"
    },
    {
      "inputs": [
        {
          "internalType": "uint256",
          "name": "amountIn",
          "type": "uint256"
        },
        {
          "internalType": "address",
          "name": "fromToken",
          "type": "address"
        }
      ],
      "name": "getAmountOut",
      "outputs": [
        {
          "internalType": "uint256",
          "name": "amountOut",
          "type": "uint256"
        },
        {
          "internalType": "uint256",
          "name": "_reserve0",
          "type": "uint256"
        },
        {
          "internalType": "uint256",
          "name": "_reserve1",
          "type": "uint256"
        }
      ],
      "stateMutability": "view",
      "type": "function"
    },
    {
      "inputs": [
        {
          "internalType": "address",
          "name": "spender",
          "type": "address"
        },
        {
          "internalType": "uint256",
          "name": "addedValue",
          "type": "uint256"
        }
      ],
      "name": "increaseAllowance",
      "outputs": [
        {
          "internalType": "bool",
          "name": "",
          "type": "bool"
        }
      ],
      "stateMutability": "nonpayable",
      "type": "function"
    },
    {
      "inputs": [],
      "name": "name",
      "outputs": [
        {
          "internalType": "string",
          "name": "",
          "type": "string"
        }
      ],
      "stateMutability": "view",
      "type": "function"
    },
    {
      "inputs": [
        {
          "internalType": "uint256",
          "name": "liquidity",
          "type": "uint256"
        }
      ],
      "name": "remove",
      "outputs": [],
      "stateMutability": "nonpayable",
      "type": "function"
    },
    {
      "inputs": [],
      "name": "reserve0",
      "outputs": [
        {
          "internalType": "uint256",
          "name": "",
          "type": "uint256"
        }
      ],
      "stateMutability": "view",
      "type": "function"
    },
    {
      "inputs": [],
      "name": "reserve1",
      "outputs": [
        {
          "internalType": "uint256",
          "name": "",
          "type": "uint256"
        }
      ],
      "stateMutability": "view",
      "type": "function"
    },
    {
      "inputs": [
        {
          "internalType": "uint256",
          "name": "amountIn",
          "type": "uint256"
        },
        {
          "internalType": "uint256",
          "name": "minAmountOut",
          "type": "uint256"
        },
        {
          "internalType": "address",
          "name": "fromToken",
          "type": "address"
        },
        {
          "internalType": "address",
          "name": "toToken",
          "type": "address"
        },
        {
          "internalType": "address",
          "name": "to",
          "type": "address"
        }
      ],
      "name": "swap",
      "outputs": [],
      "stateMutability": "nonpayable",
      "type": "function"
    },
    {
      "inputs": [],
      "name": "symbol",
      "outputs": [
        {
          "internalType": "string",
          "name": "",
          "type": "string"
        }
      ],
      "stateMutability": "view",
      "type": "function"
    },
    {
      "inputs": [],
      "name": "token0",
      "outputs": [
        {
          "internalType": "address",
          "name": "",
          "type": "address"
        }
      ],
      "stateMutability": "view",
      "type": "function"
    },
    {
      "inputs": [],
      "name": "token1",
      "outputs": [
        {
          "internalType": "address",
          "name": "",
          "type": "address"
        }
      ],
      "stateMutability": "view",
      "type": "function"
    },
    {
      "inputs": [],
      "name": "totalSupply",
      "outputs": [
        {
          "internalType": "uint256",
          "name": "",
          "type": "uint256"
        }
      ],
      "stateMutability": "view",
      "type": "function"
    },
    {
      "inputs": [
        {
          "internalType": "address",
          "name": "to",
          "type": "address"
        },
        {
          "internalType": "uint256",
          "name": "amount",
          "type": "uint256"
        }
      ],
      "name": "transfer",
      "outputs": [
        {
          "internalType": "bool",
          "name": "",
          "type": "bool"
        }
      ],
      "stateMutability": "nonpayable",
      "type": "function"
    },
    {
      "inputs": [
        {
          "internalType": "address",
          "name": "from",
          "type": "address"
        },
        {
          "internalType": "address",
          "name": "to",
          "type": "address"
        },
        {
          "internalType": "uint256",
          "name": "amount",
          "type": "uint256"
        }
      ],
      "name": "transferFrom",
      "outputs": [
        {
          "internalType": "bool",
          "name": "",
          "type": "bool"
        }
      ],
      "stateMutability": "nonpayable",
      "type": "function"
    }
  ],
  "bytecode": "0x60806040523480156200001157600080fd5b5060405162002d1c38038062002d1c833981810160405281019062000037919062000228565b6040518060400160405280601781526020017f4c6f6f6e65794c697175696469747950726f76696465720000000000000000008152506040518060400160405280600281526020017f4c500000000000000000000000000000000000000000000000000000000000008152508160039080519060200190620000bb92919062000161565b508060049080519060200190620000d492919062000161565b50505081600560006101000a81548173ffffffffffffffffffffffffffffffffffffffff021916908373ffffffffffffffffffffffffffffffffffffffff16021790555080600660006101000a81548173ffffffffffffffffffffffffffffffffffffffff021916908373ffffffffffffffffffffffffffffffffffffffff16021790555050506200031c565b8280546200016f906200029d565b90600052602060002090601f016020900481019282620001935760008555620001df565b82601f10620001ae57805160ff1916838001178555620001df565b82800160010185558215620001df579182015b82811115620001de578251825591602001919060010190620001c1565b5b509050620001ee9190620001f2565b5090565b5b808211156200020d576000816000905550600101620001f3565b5090565b600081519050620002228162000302565b92915050565b600080604083850312156200023c57600080fd5b60006200024c8582860162000211565b92505060206200025f8582860162000211565b9150509250929050565b600062000276826200027d565b9050919050565b600073ffffffffffffffffffffffffffffffffffffffff82169050919050565b60006002820490506001821680620002b657607f821691505b60208210811415620002cd57620002cc620002d3565b5b50919050565b7f4e487b7100000000000000000000000000000000000000000000000000000000600052602260045260246000fd5b6200030d8162000269565b81146200031957600080fd5b50565b6129f0806200032c6000396000f3fe608060405234801561001057600080fd5b506004361061012c5760003560e01c80635a76f25e116100ad578063a9059cbb11610071578063a9059cbb14610349578063d21220a714610379578063dd62ed3e14610397578063eab90da6146103c7578063f140a35a146103e35761012c565b80635a76f25e1461029157806370a08231146102af578063771602f7146102df57806395d89b41146102fb578063a457c2d7146103195761012c565b80632ff2e9dc116100f45780632ff2e9dc146101eb578063313ce567146102095780633950935114610227578063443cb4bc146102575780634cc82215146102755761012c565b806306fdde0314610131578063095ea7b31461014f5780630dfe16811461017f57806318160ddd1461019d57806323b872dd146101bb575b600080fd5b610139610415565b60405161014691906120c0565b60405180910390f35b61016960048036038101906101649190611c2b565b6104a7565b60405161017691906120a5565b60405180910390f35b6101876104ca565b604051610194919061202a565b60405180910390f35b6101a56104f0565b6040516101b291906122c2565b60405180910390f35b6101d560048036038101906101d09190611bdc565b6104fa565b6040516101e291906120a5565b60405180910390f35b6101f3610529565b60405161020091906122c2565b60405180910390f35b610211610530565b60405161021e9190612314565b60405180910390f35b610241600480360381019061023c9190611c2b565b610539565b60405161024e91906120a5565b60405180910390f35b61025f6105e3565b60405161026c91906122c2565b60405180910390f35b61028f600480360381019061028a9190611c90565b6105e9565b005b610299610868565b6040516102a691906122c2565b60405180910390f35b6102c960048036038101906102c49190611b77565b61086e565b6040516102d691906122c2565b60405180910390f35b6102f960048036038101906102f49190611cf5565b6108b6565b005b610303610b4f565b60405161031091906120c0565b60405180910390f35b610333600480360381019061032e9190611c2b565b610be1565b60405161034091906120a5565b60405180910390f35b610363600480360381019061035e9190611c2b565b610ccb565b60405161037091906120a5565b60405180910390f35b610381610cee565b60405161038e919061202a565b60405180910390f35b6103b160048036038101906103ac9190611ba0565b610d14565b6040516103be91906122c2565b60405180910390f35b6103e160048036038101906103dc9190611d31565b610d9b565b005b6103fd60048036038101906103f89190611cb9565b61121b565b60405161040c939291906122dd565b60405180910390f35b606060038054610424906124e8565b80601f0160208091040260200160405190810160405280929190818152602001828054610450906124e8565b801561049d5780601f106104725761010080835404028352916020019161049d565b820191906000526020600020905b81548152906001019060200180831161048057829003601f168201915b5050505050905090565b6000806104b26112fe565b90506104bf818585611306565b600191505092915050565b600560009054906101000a900473ffffffffffffffffffffffffffffffffffffffff1681565b6000600254905090565b6000806105056112fe565b90506105128582856114d1565b61051d85858561155d565b60019150509392505050565b620186a081565b60006012905090565b6000806105446112fe565b90506105d8818585600160008673ffffffffffffffffffffffffffffffffffffffff1673ffffffffffffffffffffffffffffffffffffffff16815260200190815260200160002060008973ffffffffffffffffffffffffffffffffffffffff1673ffffffffffffffffffffffffffffffffffffffff168152602001908152602001600020546105d3919061234b565b611306565b600191505092915050565b60075481565b6105f33082610ccb565b610626577f4e487b7100000000000000000000000000000000000000000000000000000000600052600160045260246000fd5b60006106306104f0565b90506000816007548461064391906123d2565b61064d91906123a1565b90506000826008548561066091906123d2565b61066a91906123a1565b905061067630856117de565b600560009054906101000a900473ffffffffffffffffffffffffffffffffffffffff1673ffffffffffffffffffffffffffffffffffffffff1663a9059cbb33846040518363ffffffff1660e01b81526004016106d392919061207c565b602060405180830381600087803b1580156106ed57600080fd5b505af1158015610701573d6000803e3d6000fd5b505050506040513d601f19601f820116820180604052508101906107259190611c67565b610758577f4e487b7100000000000000000000000000000000000000000000000000000000600052600160045260246000fd5b600660009054906101000a900473ffffffffffffffffffffffffffffffffffffffff1673ffffffffffffffffffffffffffffffffffffffff1663a9059cbb33836040518363ffffffff1660e01b81526004016107b592919061207c565b602060405180830381600087803b1580156107cf57600080fd5b505af11580156107e3573d6000803e3d6000fd5b505050506040513d601f19601f820116820180604052508101906108079190611c67565b61083a577f4e487b7100000000000000000000000000000000000000000000000000000000600052600160045260246000fd5b81600754610848919061242c565b6007819055508060085461085c919061242c565b60088190555050505050565b60085481565b60008060008373ffffffffffffffffffffffffffffffffffffffff1673ffffffffffffffffffffffffffffffffffffffff168152602001908152602001600020549050919050565b600560009054906101000a900473ffffffffffffffffffffffffffffffffffffffff1673ffffffffffffffffffffffffffffffffffffffff166323b872dd3330856040518463ffffffff1660e01b815260040161091593929190612045565b602060405180830381600087803b15801561092f57600080fd5b505af1158015610943573d6000803e3d6000fd5b505050506040513d601f19601f820116820180604052508101906109679190611c67565b61099a577f4e487b7100000000000000000000000000000000000000000000000000000000600052600160045260246000fd5b600660009054906101000a900473ffffffffffffffffffffffffffffffffffffffff1673ffffffffffffffffffffffffffffffffffffffff166323b872dd3330846040518463ffffffff1660e01b81526004016109f993929190612045565b602060405180830381600087803b158015610a1357600080fd5b505af1158015610a27573d6000803e3d6000fd5b505050506040513d601f19601f82011682018060405250810190610a4b9190611c67565b610a7e577f4e487b7100000000000000000000000000000000000000000000000000000000600052600160045260246000fd5b600082600754610a8e919061234b565b9050600082600854610aa0919061234b565b90506000600754148015610ab657506000600854145b15610acd57610ac833620186a06119b5565b610b3b565b6000610ad76104f0565b905060006007548285610aea91906123d2565b610af491906123a1565b905060006008548385610b0791906123d2565b610b1191906123a1565b90506000610b1f8383611b15565b9050610b36338583610b31919061242c565b6119b5565b505050505b816007819055508060088190555050505050565b606060048054610b5e906124e8565b80601f0160208091040260200160405190810160405280929190818152602001828054610b8a906124e8565b8015610bd75780601f10610bac57610100808354040283529160200191610bd7565b820191906000526020600020905b815481529060010190602001808311610bba57829003601f168201915b5050505050905090565b600080610bec6112fe565b90506000600160008373ffffffffffffffffffffffffffffffffffffffff1673ffffffffffffffffffffffffffffffffffffffff16815260200190815260200160002060008673ffffffffffffffffffffffffffffffffffffffff1673ffffffffffffffffffffffffffffffffffffffff16815260200190815260200160002054905083811015610cb2576040517f08c379a0000000000000000000000000000000000000000000000000000000008152600401610ca990612282565b60405180910390fd5b610cbf8286868403611306565b60019250505092915050565b600080610cd66112fe565b9050610ce381858561155d565b600191505092915050565b600660009054906101000a900473ffffffffffffffffffffffffffffffffffffffff1681565b6000600160008473ffffffffffffffffffffffffffffffffffffffff1673ffffffffffffffffffffffffffffffffffffffff16815260200190815260200160002060008373ffffffffffffffffffffffffffffffffffffffff1673ffffffffffffffffffffffffffffffffffffffff16815260200190815260200160002054905092915050565b600085118015610dab5750600084115b610dea576040517f08c379a0000000000000000000000000000000000000000000000000000000008152600401610de190612202565b60405180910390fd5b600560009054906101000a900473ffffffffffffffffffffffffffffffffffffffff1673ffffffffffffffffffffffffffffffffffffffff168373ffffffffffffffffffffffffffffffffffffffff161480610e935750600660009054906101000a900473ffffffffffffffffffffffffffffffffffffffff1673ffffffffffffffffffffffffffffffffffffffff168373ffffffffffffffffffffffffffffffffffffffff16145b610ed2576040517f08c379a0000000000000000000000000000000000000000000000000000000008152600401610ec990612262565b60405180910390fd5b600560009054906101000a900473ffffffffffffffffffffffffffffffffffffffff1673ffffffffffffffffffffffffffffffffffffffff168273ffffffffffffffffffffffffffffffffffffffff161480610f7b5750600660009054906101000a900473ffffffffffffffffffffffffffffffffffffffff1673ffffffffffffffffffffffffffffffffffffffff168273ffffffffffffffffffffffffffffffffffffffff16145b610fba576040517f08c379a0000000000000000000000000000000000000000000000000000000008152600401610fb190612222565b60405180910390fd5b8173ffffffffffffffffffffffffffffffffffffffff168373ffffffffffffffffffffffffffffffffffffffff161415611029576040517f08c379a000000000000000000000000000000000000000000000000000000000815260040161102090612142565b60405180910390fd5b6000806000611038888761121b565b92509250925086831015611081576040517f08c379a0000000000000000000000000000000000000000000000000000000008152600401611078906121c2565b60405180910390fd5b8573ffffffffffffffffffffffffffffffffffffffff166323b872dd33308b6040518463ffffffff1660e01b81526004016110be93929190612045565b602060405180830381600087803b1580156110d857600080fd5b505af11580156110ec573d6000803e3d6000fd5b505050506040513d601f19601f820116820180604052508101906111109190611c67565b611143577f4e487b7100000000000000000000000000000000000000000000000000000000600052600160045260246000fd5b8473ffffffffffffffffffffffffffffffffffffffff1663a9059cbb85856040518363ffffffff1660e01b815260040161117e92919061207c565b602060405180830381600087803b15801561119857600080fd5b505af11580156111ac573d6000803e3d6000fd5b505050506040513d601f19601f820116820180604052508101906111d09190611c67565b611203577f4e487b7100000000000000000000000000000000000000000000000000000000600052600160045260246000fd5b81600781905550806008819055505050505050505050565b60008060008060008060085460075461123491906123d2565b9050600560009054906101000a900473ffffffffffffffffffffffffffffffffffffffff1673ffffffffffffffffffffffffffffffffffffffff168773ffffffffffffffffffffffffffffffffffffffff1614156112bf576007548861129a919061234b565b925082816112a891906123a1565b9150816008546112b8919061242c565b95506112ee565b600854886112cd919061234b565b915081816112db91906123a1565b9250826007546112eb919061242c565b95505b8294508193505050509250925092565b600033905090565b600073ffffffffffffffffffffffffffffffffffffffff168373ffffffffffffffffffffffffffffffffffffffff161415611376576040517f08c379a000000000000000000000000000000000000000000000000000000000815260040161136d90612242565b60405180910390fd5b600073ffffffffffffffffffffffffffffffffffffffff168273ffffffffffffffffffffffffffffffffffffffff1614156113e6576040517f08c379a00000000000000000000000000000000000000000000000000000000081526004016113dd90612122565b60405180910390fd5b80600160008573ffffffffffffffffffffffffffffffffffffffff1673ffffffffffffffffffffffffffffffffffffffff16815260200190815260200160002060008473ffffffffffffffffffffffffffffffffffffffff1673ffffffffffffffffffffffffffffffffffffffff168152602001908152602001600020819055508173ffffffffffffffffffffffffffffffffffffffff168373ffffffffffffffffffffffffffffffffffffffff167f8c5be1e5ebec7d5bd14f71427d1e84f3dd0314c0f7b2291e5b200ac8c7c3b925836040516114c491906122c2565b60405180910390a3505050565b60006114dd8484610d14565b90507fffffffffffffffffffffffffffffffffffffffffffffffffffffffffffffffff81146115575781811015611549576040517f08c379a000000000000000000000000000000000000000000000000000000000815260040161154090612162565b60405180910390fd5b6115568484848403611306565b5b50505050565b600073ffffffffffffffffffffffffffffffffffffffff168373ffffffffffffffffffffffffffffffffffffffff1614156115cd576040517f08c379a00000000000000000000000000000000000000000000000000000000081526004016115c4906121e2565b60405180910390fd5b600073ffffffffffffffffffffffffffffffffffffffff168273ffffffffffffffffffffffffffffffffffffffff16141561163d576040517f08c379a0000000000000000000000000000000000000000000000000000000008152600401611634906120e2565b60405180910390fd5b611648838383611b2e565b60008060008573ffffffffffffffffffffffffffffffffffffffff1673ffffffffffffffffffffffffffffffffffffffff168152602001908152602001600020549050818110156116ce576040517f08c379a00000000000000000000000000000000000000000000000000000000081526004016116c590612182565b60405180910390fd5b8181036000808673ffffffffffffffffffffffffffffffffffffffff1673ffffffffffffffffffffffffffffffffffffffff16815260200190815260200160002081905550816000808573ffffffffffffffffffffffffffffffffffffffff1673ffffffffffffffffffffffffffffffffffffffff1681526020019081526020016000206000828254611761919061234b565b925050819055508273ffffffffffffffffffffffffffffffffffffffff168473ffffffffffffffffffffffffffffffffffffffff167fddf252ad1be2c89b69c2b068fc378daa952ba7f163c4a11628f55a4df523b3ef846040516117c591906122c2565b60405180910390a36117d8848484611b33565b50505050565b600073ffffffffffffffffffffffffffffffffffffffff168273ffffffffffffffffffffffffffffffffffffffff16141561184e576040517f08c379a0000000000000000000000000000000000000000000000000000000008152600401611845906121a2565b60405180910390fd5b61185a82600083611b2e565b60008060008473ffffffffffffffffffffffffffffffffffffffff1673ffffffffffffffffffffffffffffffffffffffff168152602001908152602001600020549050818110156118e0576040517f08c379a00000000000000000000000000000000000000000000000000000000081526004016118d790612102565b60405180910390fd5b8181036000808573ffffffffffffffffffffffffffffffffffffffff1673ffffffffffffffffffffffffffffffffffffffff168152602001908152602001600020819055508160026000828254611937919061242c565b92505081905550600073ffffffffffffffffffffffffffffffffffffffff168373ffffffffffffffffffffffffffffffffffffffff167fddf252ad1be2c89b69c2b068fc378daa952ba7f163c4a11628f55a4df523b3ef8460405161199c91906122c2565b60405180910390a36119b083600084611b33565b505050565b600073ffffffffffffffffffffffffffffffffffffffff168273ffffffffffffffffffffffffffffffffffffffff161415611a25576040517f08c379a0000000000000000000000000000000000000000000000000000000008152600401611a1c906122a2565b60405180910390fd5b611a3160008383611b2e565b8060026000828254611a43919061234b565b92505081905550806000808473ffffffffffffffffffffffffffffffffffffffff1673ffffffffffffffffffffffffffffffffffffffff1681526020019081526020016000206000828254611a98919061234b565b925050819055508173ffffffffffffffffffffffffffffffffffffffff16600073ffffffffffffffffffffffffffffffffffffffff167fddf252ad1be2c89b69c2b068fc378daa952ba7f163c4a11628f55a4df523b3ef83604051611afd91906122c2565b60405180910390a3611b1160008383611b33565b5050565b6000818310611b245781611b26565b825b905092915050565b505050565b505050565b600081359050611b4781612975565b92915050565b600081519050611b5c8161298c565b92915050565b600081359050611b71816129a3565b92915050565b600060208284031215611b8957600080fd5b6000611b9784828501611b38565b91505092915050565b60008060408385031215611bb357600080fd5b6000611bc185828601611b38565b9250506020611bd285828601611b38565b9150509250929050565b600080600060608486031215611bf157600080fd5b6000611bff86828701611b38565b9350506020611c1086828701611b38565b9250506040611c2186828701611b62565b9150509250925092565b60008060408385031215611c3e57600080fd5b6000611c4c85828601611b38565b9250506020611c5d85828601611b62565b9150509250929050565b600060208284031215611c7957600080fd5b6000611c8784828501611b4d565b91505092915050565b600060208284031215611ca257600080fd5b6000611cb084828501611b62565b91505092915050565b60008060408385031215611ccc57600080fd5b6000611cda85828601611b62565b9250506020611ceb85828601611b38565b9150509250929050565b60008060408385031215611d0857600080fd5b6000611d1685828601611b62565b9250506020611d2785828601611b62565b9150509250929050565b600080600080600060a08688031215611d4957600080fd5b6000611d5788828901611b62565b9550506020611d6888828901611b62565b9450506040611d7988828901611b38565b9350506060611d8a88828901611b38565b9250506080611d9b88828901611b38565b9150509295509295909350565b611db181612460565b82525050565b611dc081612472565b82525050565b6000611dd18261232f565b611ddb818561233a565b9350611deb8185602086016124b5565b611df4816125a7565b840191505092915050565b6000611e0c60238361233a565b9150611e17826125b8565b604082019050919050565b6000611e2f60228361233a565b9150611e3a82612607565b604082019050919050565b6000611e5260228361233a565b9150611e5d82612656565b604082019050919050565b6000611e7560238361233a565b9150611e80826126a5565b604082019050919050565b6000611e98601d8361233a565b9150611ea3826126f4565b602082019050919050565b6000611ebb60268361233a565b9150611ec68261271d565b604082019050919050565b6000611ede60218361233a565b9150611ee98261276c565b604082019050919050565b6000611f0160168361233a565b9150611f0c826127bb565b602082019050919050565b6000611f2460258361233a565b9150611f2f826127e4565b604082019050919050565b6000611f47600e8361233a565b9150611f5282612833565b602082019050919050565b6000611f6a60108361233a565b9150611f758261285c565b602082019050919050565b6000611f8d60248361233a565b9150611f9882612885565b604082019050919050565b6000611fb060128361233a565b9150611fbb826128d4565b602082019050919050565b6000611fd360258361233a565b9150611fde826128fd565b604082019050919050565b6000611ff6601f8361233a565b91506120018261294c565b602082019050919050565b6120158161249e565b82525050565b612024816124a8565b82525050565b600060208201905061203f6000830184611da8565b92915050565b600060608201905061205a6000830186611da8565b6120676020830185611da8565b612074604083018461200c565b949350505050565b60006040820190506120916000830185611da8565b61209e602083018461200c565b9392505050565b60006020820190506120ba6000830184611db7565b92915050565b600060208201905081810360008301526120da8184611dc6565b905092915050565b600060208201905081810360008301526120fb81611dff565b9050919050565b6000602082019050818103600083015261211b81611e22565b9050919050565b6000602082019050818103600083015261213b81611e45565b9050919050565b6000602082019050818103600083015261215b81611e68565b9050919050565b6000602082019050818103600083015261217b81611e8b565b9050919050565b6000602082019050818103600083015261219b81611eae565b9050919050565b600060208201905081810360008301526121bb81611ed1565b9050919050565b600060208201905081810360008301526121db81611ef4565b9050919050565b600060208201905081810360008301526121fb81611f17565b9050919050565b6000602082019050818103600083015261221b81611f3a565b9050919050565b6000602082019050818103600083015261223b81611f5d565b9050919050565b6000602082019050818103600083015261225b81611f80565b9050919050565b6000602082019050818103600083015261227b81611fa3565b9050919050565b6000602082019050818103600083015261229b81611fc6565b9050919050565b600060208201905081810360008301526122bb81611fe9565b9050919050565b60006020820190506122d7600083018461200c565b92915050565b60006060820190506122f2600083018661200c565b6122ff602083018561200c565b61230c604083018461200c565b949350505050565b6000602082019050612329600083018461201b565b92915050565b600081519050919050565b600082825260208201905092915050565b60006123568261249e565b91506123618361249e565b9250827fffffffffffffffffffffffffffffffffffffffffffffffffffffffffffffffff038211156123965761239561251a565b5b828201905092915050565b60006123ac8261249e565b91506123b78361249e565b9250826123c7576123c6612549565b5b828204905092915050565b60006123dd8261249e565b91506123e88361249e565b9250817fffffffffffffffffffffffffffffffffffffffffffffffffffffffffffffffff04831182151516156124215761242061251a565b5b828202905092915050565b60006124378261249e565b91506124428361249e565b9250828210156124555761245461251a565b5b828203905092915050565b600061246b8261247e565b9050919050565b60008115159050919050565b600073ffffffffffffffffffffffffffffffffffffffff82169050919050565b6000819050919050565b600060ff82169050919050565b60005b838110156124d35780820151818401526020810190506124b8565b838111156124e2576000848401525b50505050565b6000600282049050600182168061250057607f821691505b6020821081141561251457612513612578565b5b50919050565b7f4e487b7100000000000000000000000000000000000000000000000000000000600052601160045260246000fd5b7f4e487b7100000000000000000000000000000000000000000000000000000000600052601260045260246000fd5b7f4e487b7100000000000000000000000000000000000000000000000000000000600052602260045260246000fd5b6000601f19601f8301169050919050565b7f45524332303a207472616e7366657220746f20746865207a65726f206164647260008201527f6573730000000000000000000000000000000000000000000000000000000000602082015250565b7f45524332303a206275726e20616d6f756e7420657863656564732062616c616e60008201527f6365000000000000000000000000000000000000000000000000000000000000602082015250565b7f45524332303a20617070726f766520746f20746865207a65726f20616464726560008201527f7373000000000000000000000000000000000000000000000000000000000000602082015250565b7f46726f6d20616e6420746f20746f6b656e732073686f756c64206e6f74206d6160008201527f7463680000000000000000000000000000000000000000000000000000000000602082015250565b7f45524332303a20696e73756666696369656e7420616c6c6f77616e6365000000600082015250565b7f45524332303a207472616e7366657220616d6f756e742065786365656473206260008201527f616c616e63650000000000000000000000000000000000000000000000000000602082015250565b7f45524332303a206275726e2066726f6d20746865207a65726f2061646472657360008201527f7300000000000000000000000000000000000000000000000000000000000000602082015250565b7f536c69707065642e2e2e206f6e20612062616e616e6100000000000000000000600082015250565b7f45524332303a207472616e736665722066726f6d20746865207a65726f20616460008201527f6472657373000000000000000000000000000000000000000000000000000000602082015250565b7f416d6f756e7420696e76616c6964000000000000000000000000000000000000600082015250565b7f546f20746f6b656e20696e76616c696400000000000000000000000000000000600082015250565b7f45524332303a20617070726f76652066726f6d20746865207a65726f2061646460008201527f7265737300000000000000000000000000000000000000000000000000000000602082015250565b7f46726f6d20746f6b656e20696e76616c69640000000000000000000000000000600082015250565b7f45524332303a2064656372656173656420616c6c6f77616e63652062656c6f7760008201527f207a65726f000000000000000000000000000000000000000000000000000000602082015250565b7f45524332303a206d696e7420746f20746865207a65726f206164647265737300600082015250565b61297e81612460565b811461298957600080fd5b50565b61299581612472565b81146129a057600080fd5b50565b6129ac8161249e565b81146129b757600080fd5b5056fea264697066735822122068f670ff8eb4008d280c1d3495d918a210352a92f783cf917b7f67feacbe26e964736f6c63430008040033",
  "linkReferences": {},
  "deployedLinkReferences": {}
}